:03000000020122D8
:0C012200787FE4F6D8FD758109020169C0
:03004900010801AA
:10008600E4F509120030E50824FE601214603D1400
:1000960060682403600302011C7590FF80E8759078
:1000A600FE7FC812001A7FC812001AE4F509E50996
:1000B600D3940150D1AF907801EF08800123D8FD89
:1000C6001200167FC812001A050980E27590DF7FBC
:1000D600C812001A7FC812001AE4F509E509D3947C
:1000E6000150A3AF907801EF08800103D8FD1200FC
:1000F600167FC812001A050980E2E41200167FC8AE
:1001060012001A7590FF7FC812001A7FC812001AD3
:0C011600E4F59002008C7590FF02008C54
:10003000D2B2D288D2A8D2B3D28AD2AA438F4043B6
:050040008F10D2AF2279
:03000300020006F2
:040006007508043243
:0300130002000ADE
:04000A007508033240
:0300530002000E9A
:04000E00750801323E
:0300830002004533
:040045007508023206
:04001600F5907FC81A
:10001A00E4FEEEC39F500E0000007D0B7CBEDCFEAA
:05002A00DDFC0E80ED7D
:01002F0022AE
:10012E00020086E493A3F8E493A34003F68001F261
:10013E0008DFF48029E493A3F85407240CC8C333D2
:10014E00C4540F4420C8834004F456800146F6DFA1
:10015E00E4800B0102040810204080900049E47EE8
:10016E00019360BCA3FF543F30E509541FFEE49396
:10017E00A360010ECF54C025E060A840B8E493A35D
:10018E00FAE493A3F8E493A3C8C582C8CAC583CA88
:10019E00F0A3C8C582C8CAC583CADFE9DEE780BE40
:01004C0000B3
:00000001FF
